:100000000C9483000C94AB000C94AB000C94AB00EC
:100010000C94AB000C94AB000C94AB000C94AB00B4
:100020000C94AB000C94AB000C94AB000C94AB00A4
:100030000C94AB000C94AB000C94AB000C94AB0094
:100040000C94B7170C94AB000C94701A0C94A21A71
:100050000C94AB000C94AB000C94AB000C94AB0074
:100060000C94AB000C94AB000000000800020100EF
:100070000003040700000000000000000102040863
:100080001020408001020408102001020408102002
:10009000040404040404040402020202020203032E
:1000A0000303030300000000250028002B000000CC
:1000B0000000240027002A004E414E494E49545961
:1000C000494E46CDCCCC3D0AD7233C17B7D1387723
:1000D000CC2B329595E6241FB14F0A000020410039
:1000E00000C84200401C4620BCBE4CCA1B0E5AAE83
:1000F000C59D7400C90055032C093D0D250F300F17
:100100000611D21A801B11241FBECFEFD8E0DEBF2C
:10011000CDBF12E0A0E0B1E0EAE5F2E402C0059054
:100120000D92A633B107D9F723E0A6E3B2E001C0F0
:100130001D92A73CB207E1F710E0C6E0D1E004C091
:100140002297FE010E94DE1EC43FD107C9F70E941C
:10015000901B0C942B210C940000CF93DF9300D0C4
:10016000CDB7DEB78091C1039091C2039E012F5F8E
:100170003F4F009719F4275C334002C0281B390B0E
:100180003A83298389819A810F900F90DF91CF91D3
:1001900008950F9300E020E040E060E08BE592E0FE
:1001A0000E94591B86E392E00F910C94490ECF9365
:1001B000DF9300D000D000D0CDB7DEB726E040E816
:1001C00055E260E070E08EE193E00E940E1A61E07B
:1001D00087E00E94BC1861E086E00E94BC1861E0E4
:1001E00085E00E94BC1868EE73E080E090E00E9419
:1001F000301861E087E00E94F5186AE071E08FEC4A
:1002000092E00E94160C019789F06FE271E08EE196
:1002100093E00E94041C86E392E00E94C00E68E90D
:100220007AE380E090E00E943018E7CF6CE471E060
:100230008EE193E00E94041C62E571E08EE193E0A0
:100240000E94DD1B0E94AD004AE050E0BC018EE13F
:1002500093E00E94D31C6EE571E08EE193E00E9472
:10026000DD1B6FEC72E0CE0101960E94150DBE0100
:100270006F5F7F4F8EE193E00E94161C8EE193E04A
:100280000E94F01B61E086E00E94F51861E085E0C5
:100290000E94F51868EE73E080E090E00E9430184C
:1002A00060E087E00E94F51860E086E00E94F518A3
:1002B00060E085E00E94F51826960FB6F894DEBF40
:1002C0000FBECDBFDF91CF91089540E550E060E1D2
:1002D00071E086E392E00E94EB0D892B09F4BAC02D
:1002E00061E085E00E94F5186EE671E086E392E039
:1002F0000E94DD1B67E271E086E392E00E94DD1B55
:1003000064E971E086E392E00E94DD1B6BE171E03D
:1003100086E392E00E94DD1B6FE971E086E392E0E4
:100320000E94DD1B60914F0270915002809151023A
:10033000909152020E94431D4AE050E086E392E011
:100340000E94CB1C67EA71E086E392E00E94DD1B0D
:1003500061EB71E086E392E00E94041C6BEB71E0BC
:1003600086E392E00E94DD1B60E171E086E392E0AB
:100370000E94041C86E392E00E94F01B6EE671E08E
:100380008EE193E00E94DD1B67E271E08EE193E075
:100390000E94DD1B64E971E08EE193E00E94DD1BA9
:1003A0006BE171E08EE193E00E94DD1B6FE971E08B
:1003B0008EE193E00E94DD1B60914F02709150022C
:1003C00080915102909152020E94431D4AE050E0F8
:1003D0008EE193E00E94CB1C67EA71E08EE193E02E
:1003E0000E94DD1B61EB71E08EE193E00E94041C32
:1003F0006BEB71E08EE193E00E94DD1B60E171E048
:100400008EE193E00E94041C8EE193E00E94F01BB9
:100410000E9401186093490270934A0280934B0234
:1004200090934C0286E392E00E94E70D68EE73E041
:1004300080E090E00E94301886E392E00E94C00EB7
:1004400068EE73E080E090E00E94301860E085E0A4
:100450000C94F51862EC71E08EE193E00C94041CAE
:100460000F931F938FEC92E00E94B10C20E030E0DC
:10047000A90160914F0270915002809151029091B8
:1004800052020E943F1D81110CC061E086E00E9473
:10049000F51868EE73E080E090E01F910F910C94E6
:1004A000301860E086E00E94F51886E392E00E9432
:1004B000010F811104C080914E02811136C086E384
:1004C00092E00E94010F811104C080914D028111C0
:1004D00031C086E392E00E94010F91E0811101C0DA
:1004E00090E090934E020E940118009143021091F7
:1004F00044022091450230914602601B710B820B31
:10050000930B61307C4586429540C8F010924802BA
:10051000109247020E9401186093430270934402B4
:1005200080934502909346020AC086E392E00E94BF
:10053000C00EC5CF10924D020E946501CACF1F9117
:100540000F910895CF92DF92EF92FF920F931F9336
:10055000CF93DF93CDB7DEB72A970FB6F894DEBFFF
:100560000FBECDBF8E010F5F1F4F8AE0F8011192C1
:100570008A95E9F7F12CD12C8AE0C82E8EE193E020
:100580000E942B19892BC9F161E086E00E94F518C1
:100590006AE070E080E090E00E9430188EE193E025
:1005A0000E944419E82EFCE28F1719F02DE0821307
:1005B00015C0C8010E944E1F24E0D29EF0011124F4
:1005C000E15BFD4F6083718382839383D394F80151
:1005D0002C2D11922A95E9F7F12C05C0F801EF0DA9
:1005E000F11D8083F39460E086E00E94F5188DE0B1
:1005F000E812C4CF81E080934D022A960FB6F8949A
:10060000DEBF0FBECDBFDF91CF911F910F91FF9045
:10061000EF90DF90CF9008950E9624E1FC011192A7
:100620002A95E9F70895CF93DF93EC01625F7F4F3E
:100630000E94651BCE01DF91CF910895CF93DF9388
:10064000EC016E5E7F4F0E94651BCE01DF91CF9162
:100650000895CF93DF93EC016A5E7F4F0E94651B84
:10066000CE01DF91CF910895CF93DF93EC01625ECD
:100670007F4F0E94651BCE01DF91CF91089580E3EB
:10068000FB0180833296842F82958F7090E1899F41
:10069000401911244A3014F4405D01C0495C429372
:1006A000882311F0482FEFCF08950F9300E020E04A
:1006B00040E060E081E692E00E94591B0F910895AE
:1006C0006F927F928F929F92AF92BF92CF92DF9262
:1006D000EF92FF920F931F93CF93DF93CDB7DEB7C7
:1006E000AC970FB6F894DEBF0FBECDBF7C01862E4F
:1006F000B42EA52E20E2922ECE0101966C01FC01B3
:10070000292D11922A95E9F70FEF2FEF4FEF6FEF99
:1007100086960E94591B83E392E09AA389A389A538
:100720009AA5ABA5BCA58BA39CA3ADA3BEA3870133
:10073000095B1F4F43E450E0BE016F5D7F4FC8016E
:100740000E94970F019609F4BFC081E089838A83D4
:1007500086E0782E7B821C82F70164817581868118
:1007600097810E94CA1E6D837E838F839887A98696
:10077000BA8680E890E09C878B874CE150E0B60118
:10078000C8010E94A30FF601292D11922A95E9F7BD
:10079000570188E0A80EB11CF501D60101900D9219
:1007A0007A94E1F740E150E0B601C8010E94A30F3E
:1007B000F60111929A94E9F796E0692E712C40E2C5
:1007C00050E0B601C8010E94A30FF1E06F1A710852
:1007D000B1F783E6898392E89A8393E59B838C83C0
:1007E00085E38D8381E08E838F829DE3988797E0F8
:1007F00099878A8786E0F501DE011B9601900D92AC
:100800008A95E1F78CE0898B8A8B60ED71E0CE01EF
:1008100043960E945F1FF7014385BE01675E7F4FCD
:10082000C7010E943F03F7014485BE01655E7F4F0B
:10083000C7010E943F03F7014585BE01635E7F4FFC
:10084000C7010E943F034EE150E0B601C8010E947B
:10085000A30FF3E08F121EC082E3898384E08A83B2
:10086000F70196859B8397859C8390899D839189C9
:100870009E8396E39F838887828D8987838D8A876D
:10088000848D8B87858D8C874CE050E0B601C80144
:100890000E94A30F87E3898386E08A8391E09B838C
:1008A00093E09C838D838FE08E838AE38F838BE339
:1008B00088878FEF898749E050E0B601C8010E9420
:1008C000A30FC8010E949F0FAC960FB6F894DEBF2D
:1008D0000FBECDBFDF91CF911F910F91FF90EF9091
:1008E000DF90CF90BF90AF909F908F907F906F9050
:1008F00008952F923F924F925F926F927F928F92C4
:100900009F92AF92BF92CF92DF92EF92FF920F939E
:100910001F93CF93DF93CDB7DEB7E3970FB6F8946D
:10092000DEBF0FBECDBF7C012A013B0169010E94E1
:1009300001184B015C018701095B1F4FC8010E9430
:1009400043101816190694F00E94011868197909C5
:100950008A099B094616570668067906F0F062E395
:1009600070E080E090E00E943018E8CF42E250E072
:10097000BE016F5F7F4FC8010E94E00F8981823006
:1009800031F4F801858996898334910541F019A6DF
:10099000C8010E94700F89A566C18FEF64C16D8187
:1009A0007E818F8198850E94CA1E4B015C01F601F1
:1009B000608371838283938346E050E0B701685F70
:1009C0007F4FCE014D960E94521F892B99F4F7015B
:1009D00080819181A281B38188169906AA06BB06FF
:1009E00048F084819581A681B78188159905AA056B
:1009F000BB0528F4C8010E94700F80E034C18989CA
:100A00009A89AB89BC89F70186879787A08BB18BC0
:100A10003EECC32ED12CC8010E94B70FF1E0CF1AD3
:100A2000D108C9F719A6C70182969BA78AA7F70123
:100A3000B696FDA7ECA708969FA78EA73C976F01D7
:100A40008E9699AB88AB3897FBABEAAB5701F6E1D2
:100A5000AF0EB11C47018EE1880E911CC8010E94A7
:100A6000560F181619060CF093CFC8010E94B70F45
:100A70008333910509F4CDC0F4F481309105B9F1C7
:100A80001CF4892B59F3DFC083309105C1F106971F
:100A900009F0D9C0C8010E94B70F3C0144E050E002
:100AA000B401C8010E94E00F212C312C7724F4E01E
:100AB0006F1A71083FC08A33910509F47EC03CF477
:100AC0008533910561F0C69709F43FC0BCC08B33F4
:100AD000910509F488C08F3F910501F2B4C0C801A7
:100AE0000E94B70FC8010E94B70F89A7B7CFC801EE
:100AF0000E94B70F44E050E06AA97BA93AC0C80140
:100B00000E94B70F3C0144E050E0B501C8010E94CB
:100B1000E00F212C312C772494E0691A71082614F7
:100B200037040CF09BCFC8010E94B70FEFEF2E1ACD
:100B30003E0AF5CF261437040CF090CFC8010E946E
:100B4000B70F8FEF281A380AF5CFC8010E94B70FE8
:100B5000782EF701828D811110C0838D81110DC017
:100B6000848D81110AC0858D811107C044E050E059
:100B7000B601C8010E94E00F71CFE8A9F9A9208051
:100B8000318042805380B601CE0183960E94651B5E
:100B90008DA19EA1AFA1B8A582159305A405B505A9
:100BA00029F3212C312C721409F458CFC8010E946A
:100BB000B70FFFEF2F1A3F0AF6CFC8010E94B70FF9
:100BC00044E050E06CA57DA5C8010E94E00FF7014C
:100BD00066A177A180A591A50E94CA1E66A377A3EE
:100BE00080A791A73BCFC8010E94B70F44E050E017
:100BF0006EA57FA5C8010E94E00FF70162A573A54D
:100C000084A595A50E94CA1E62A773A784A795A76D
:100C100025CFC8010E94B70F44E050E06AA57BA52C
:100C2000C8010E94E00FF70162A173A184A195A100
:100C30000E94CA1E62A373A384A395A366A777A785
:100C400080AB91AB0BCFC8010E94B70F382E612C3F
:100C5000712C361409F402CFC8010E94B70FFFEFC0
:100C60006F1A7F0AF6CFE3960FB6F894DEBF0FBE79
:100C7000CDBFDF91CF911F910F91FF90EF90DF904B
:100C8000CF90BF90AF909F908F907F906F905F902C
:100C90004F903F902F9008952F923F924F925F92E6
:100CA0006F927F928F929F92AF92BF92CF92DF927C
:100CB000EF92FF920F931F93CF93DF93CDB7DEB7E1
:100CC00027970FB6F894DEBF0FBECDBF8C0120ED85
:100CD00037E040E050E061E070E080E090E00E94AA
:100CE000231DD80114966D937D938D939C93179734
:100CF000F80160837183828393834801F7E48F0E48
:100D0000911CC4010E94820F64E470E0C4010E943F
:100D10001610882309F428C10E9401186B017C0178
:100D2000A12CB12C1D82180186E4280E311CD8019B
:100D3000DE96BF83AE8338EE432E33E0532E612C14
:100D4000712CF1018081833009F4FDC081111FC035
:100D5000F80184819581A681B7810196A11DB11DFD
:100D600084839583A683B7830E9401186C197D093B
:100D70008E099F09A30192010E94891EA90161E0C9
:100D8000C8010E94600381E0D1018C93BEC0843011
:100D9000F9F4F80184819581A681B7810196A11D9E
:100DA000B11D84839583A683B7830E9401186C19B3
:100DB0007D098E099F09A30192010E94891EA90144
:100DC00063E0C8010E946003E2E0D101EC939DC0A2
:100DD000813061F5AE81BF814D915D916D917C91C6
:100DE0009E012F5F3F4FC8010E9479048D8382309E
:100DF00009F08BC089819A81AB81BC81F801848321
:100E00009583A683B7830E9401186C197D098E090A
:100E10009F09A30192010E94891EA90163E0C801F4
:100E20000E946003ED81D101EC9375C0823009F01E
:100E30006CC0AE81BF814D915D916D917C919E01A1
:100E40002F5F3F4FC8010E9479048D83853009F0E0
:100E500056C083E0F1018083F80182A193A1A4A18F
:100E6000B5A1892B8A2B8B2B41F484E893E0A0E079
:100E7000B0E082A393A3A4A3B5A3F80186A197A190
:100E8000A0A5B1A5892B8A2B8B2B61F482A193A1FC
:100E9000A4A1B5A1B695A7959795879586A397A385
:100EA000A0A7B1A7D8019A964D915D916D917C91C3
:100EB0009D9796968D919D910D90BC91A02D452B5F
:100EC000462B472B59F4AC01BD01440F551F661F3B
:100ED000771FF80142A753A764A775A7F80186A753
:100EE00097A7A0ABB1AB82A593A5A4A5B5A582ABEE
:100EF00093ABA4ABB5ABAA24A394B12C0CC0FD81D9
:100F0000F63019F4D1011C9206C0BD81BF3F19F41F
:100F1000F10110821D82F1E0AF16B10409F411CF86
:100F20000E9401186C197D098E099F09D801DA9673
:100F30002D913D914D915C91DD972617370748071C
:100F4000590708F0FECEC4010E94820FF801848187
:100F50009581A681B7810196A11DB11D84839583DA
:100F6000A683B783C50102C080E090E027960FB644
:100F7000F894DEBF0FBECDBFDF91CF911F910F91CF
:100F8000FF90EF90DF90CF90BF90AF909F908F90A9
:100F90007F906F905F904F903F902F900895CF92E9
:100FA000DF92EF92FF920F931F93CF93DF93EC01A9
:100FB0006B011AA21BA21CA21DA21EA21FA218A690
:100FC00019A61AA61BA61CA61DA61EAA1FAA18AE05
:100FD00019AE2AAF3BAF4CAF5DAFFC01FE96E0828D
:100FE000F182028313838C01085F1F4F86E0F801B2
:100FF00011928A95E9F7CE010E940C0386E0F60172
:10100000D80101900D928A95E1F7FE01EA5BFF4F4E
:101010001082CE01DF91CF911F910F91FF90EF9041
:10102000DF90CF900C944C068F929F92AF92BF921C
:10103000CF92DF92EF92FF920F931F93CF93DF93A4
:10104000EC010E9401186B017C018EA99FA9A8AD3B
:10105000B9AD8E010E5B1F4F892B8A2B8B2B09F4A8
:101060008FC0F80180819181A281B381A70196018F
:10107000281B390B4A0B5B0BCA01B90157FD4EC047
:101080004601570138EE830E33E0931EA11CB11CBC
:1010900028EE33E040E050E00E94AB1E861A970A2B
:1010A000A80AB90AF80180829182A282B382DA0189
:1010B000C9010196A11DB11D4EA55FA568A979A919
:1010C0008C019D01000F111F221F331F4017510774
:1010D000620773072CF41EA61FA618AA19AA08C037
:1010E000481B590B6A0B7B0B4EA75FA768AB79AB0C
:1010F0004AA95BA96CA97DA940175107620773072C
:101100002CF41AAA1BAA1CAA1DAA08C0481B590B1A
:101110006A0B7B0B4AAB5BAB6CAB7DAB8E010A5BA6
:101120001F4FF8018081833081F48EA59FA5A8A967
:10113000B9A9181619061A061B063CF084E080832C
:10114000CE010E944C06019602C080E090E0F801BA
:101150002081233011F0211120C04AA95BA96CA97C
:101160007DA91416150616061706BCF0F8011082A4
:10117000CE010E940C03CE010E944C0603960DC0C6
:10118000D701C60188519C4FAF4FBF4FF8018083F4
:101190009183A283B38380E090E0CEAADFAAE8AE79
:1011A000F9AEDF91CF911F910F91FF90EF90DF90FB
:1011B000CF90BF90AF909F908F900895FB01428198
:1011C000538164817581FC014283538364837583F9
:1011D000178216820895CF93FB0181918111FDCF73
:1011E000FB0180E090E020E030E0CAE061916623FE
:1011F00009F12430310564F56E3271F48F3F9105A9
:1012000009F034F5DA01A20FB31F12968C932F5F09
:101210003F4F80E090E0EACFDC01CA9FC001CB9F46
:10122000900D1124772767FD709560537109860F23
:10123000971FDCCF8F3F910509F054F4243031051E
:101240003CF4FA01E20FF31F828381E090E002C0D8
:1012500080E090E0CF9108950F9300E020E040E01F
:1012600060E087E692E00E94591B0F910895AF92CB
:10127000BF92CF92DF92EF92FF920F931F93CF9383
:10128000DF9300D01F92CDB7DEB76C017B010E94C7
:101290000118F601778366838601085F1F4FB60148
:1012A0006A5F7F4F42E050E0C8010E94A30F81E0D7
:1012B00090E09A83898342E050E0BE016F5F7F4FE8
:1012C000C8010E94A30F80E091E09A83898342E0E5
:1012D00050E0BE016F5F7F4FC8010E94A30F1A82CA
:1012E000198242E050E0BE016F5F7F4FC8010E944B
:1012F000A30F42E050E0BE016F5F7F4FC8010E9424
:10130000A30F42E050E0BE016F5F7F4FC8010E9413
:10131000A30F6701F6018081882311F1F7016F01A6
:101320008191811115C05601AE18BF081A141B0413
:1013300094F4AB8241E050E0BE016D5F7F4FC80185
:101340000E94A30FA501B701C8010E94A30F03C00B
:101350008E3229F7E8CF7601FFEFEF1AFF0ADACFD6
:101360001B8241E050E0BE016D5F7F4FC8010E94CB
:10137000A30FE12CFF24F394FA82E98242E050E0CB
:10138000BE016F5F7F4FC8010E94A30FFA82E982FE
:1013900042E050E0BE016F5F7F4FC8010E94A30F83
:1013A00081E090E00F900F900F90DF91CF911F910F
:1013B0000F91FF90EF90DF90CF90BF90AF90089586
:1013C0004F925F926F927F928F929F92AF92BF9255
:1013D000CF92DF92EF92FF920F931F93CF93DF9301
:1013E000CDB7DEB763970FB6F894DEBF0FBECDBFA3
:1013F0007C015B016A010E9401182B013C018701FD
:10140000085F1F4F4501A12CB12CC8010E94431059
:101410001816190694F00E940118641975098609B6
:10142000970986169706A806B906D0F062E370E021
:1014300080E090E00E943018E8CFF70142815381AC
:1014400064817581818D928DA38DB48D4817590764
:101450006A077B0741F4858D968DC59721F406C0F8
:101460008FEF9FEFF9C08EEF9FEFF6C0C8010E948B
:10147000560F0C970CF4EEC04CE050E0BE016F5FCD
:101480007F4FC8010E94E00F8B819C81982789279C
:1014900098279A8B898BF7014681578129813A8158
:1014A0004217530711F497FD06C0C8010E94700F40
:1014B0008CEF9FEFD1C08F709270892B31F0C801F3
:1014C0000E94700F8BEF9FEFC7C0AF80B884BA2423
:1014D000AB24BA24A114B10419F0E12CF12C23C0DF
:1014E000C8010E94700F8AEF9FEFB6C041E050E044
:1014F000BE01635F7F4FC8010E94E00F8D8581119F
:101500001BC08D858111F2CFC8010E94B70FC801A1
:101510000E94B70FC8010E94B70FC8010E94B70F01
:10152000FFEFEF1AFF0A8D819E8198278927982760
:10153000E816F906D8F20AC08D859FEF980F9D87AF
:101540008823F9F2C8010E94B70FF6CFE12CF12CE5
:1015500041E050E0BE016D5E7F4FC8010E94E00F88
:101560008B89982F907C61F4882371F08B899FEF91
:10157000980F9B8B882341F0C8010E94B70FF6CFCC
:10158000C8010E94B70F1B8A8B898111E1CF42E00D
:1015900050E0BE01615F7F4FC8010E94E00F42E052
:1015A00050E0BE01635F7F4FC8010E94E00FC80199
:1015B0000E94B70FC8010E94B70FC8010E94B70F61
:1015C000C8010E94B70F42E050E0BE016F5E7F4F3E
:1015D000C8010E94E00F8F8598898115914029F4F8
:1015E0008D859E858115914019F0812C912C16C016
:1015F00089899A898115944031F0C8010E94700F41
:1016000087EF9FEF29C0B6016E5F7F4F44E050E047
:10161000C8010E94E00F81E090E01EC089899A898C
:101620009827892798278816990638F4C8010E94B8
:10163000B70F2FEF821A920AF1CF8FEFE81AF80A4C
:10164000EA14FB0409F084CFC8010E94700F86EFF2
:101650009FEF02C08DEF9FEF63960FB6F894DEBF49
:101660000FBECDBFDF91CF911F910F91FF90EF90F3
:10167000DF90CF90BF90AF909F908F907F906F90B2
:101680005F904F9008958F929F92AF92BF92CF92AA
:10169000DF92EF92FF920F931F93CF93DF9300D0CF
:1016A00000D000D0CDB7DEB78C015B016A010E948B
:1016B000EB084C01009709F05DC0F80142815381AD
:1016C000648175818091690290916A02A0916B0298
:1016D000B0916C02481759076A077B0709F44EC09E
:1016E0000E9401187801F8E0EF0EF11C6F70772767
:1016F0007C5FC7010E941610813009F043C083E36C
:1017000092E09A838983F80182819381A481B581D3
:101710008B839C83AD83BE8345E350E0BE016F5F46
:101720007F4FC7010E94970F892B19F4812C912CB0
:101730001DC0B501C8010E943709892BB9F3C70143
:101740000E949F0F892B91F333E0A32EB12CA601A9
:1017500068E873E1C8010E94E0094C01F1E0AF1AAA
:10176000B10821F08F3F2FEF920789F3C7010E9444
:10177000820F08C088248394912C04C09EEF892E88
:1017800099249A94C40126960FB6F894DEBF0FBE32
:10179000CDBFDF91CF911F910F91FF90EF90DF9020
:1017A000CF90BF90AF909F908F900895209113039A
:1017B000222399F03FB7F89420911303213059F474
:1017C0002DB3209311034DB32091120320952423B0
:1017D0002DBB3FBF02C0309311038CBD9DBD08954A
:1017E00080911303882361F09FB7F894209113032D
:1017F00080911103213019F48DBB9FBF08958FBFD5
:10180000089544E050E0BC0181E090E00C9477152D
:1018100044E050E0BC0185E090E00C94771544E092
:1018200050E0BC018FE090E00C947715AF92BF922E
:10183000CF92DF92EF92FF920F931F93CF93DF939C
:1018400000D000D000D0CDB7DEB76C015B01809135
:10185000D702811107C084EB92E00E94931081E0CF
:101860008093D7028DE692E0F6019783868381E02C
:1018700093E00E940F1580E590E00E94D60B46E0B1
:1018800050E0B50189E090E00E94771500E020E08B
:1018900040E060E0CE0101960E94591BCE01039604
:1018A0000E940F0C0E94F00B10EAE12E1FE0F12EB7
:1018B00000E010E020E63AEE40E050E0B501F6012D
:1018C000868197810E94CF075C0181309105B9F52F
:1018D00080E590E00E94D60BF60166817781CE010B
:1018E00001960E941303CE0103960E940F0CF6018D
:1018F00066817781CE0101960E942903CE0103966D
:101900000E94010CF60166817781CE0101960E944A
:101910001E03CE0103960E94080C0E94F00BF601F4
:1019200066817781CE0101960E9434034B815C81F0
:101930006D817E81F6014283538364837583C50183
:1019400026960FB6F894DEBF0FBECDBFDF91CF91C4
:101950001F910F91FF90EF90DF90CF90BF90AF90CD
:101960000895EF92FF920F931F93CF93DF9300D0D0
:1019700000D000D0CDB7DEB78C01FC018681978105
:10198000009709F442C00E9414087C01823091053E
:1019900021F084E0E816F104D1F580E590E00E94A2
:1019A000D60BF80166817781CE0101960E94130360
:1019B000CE0103960E940F0CF80166817781CE015B
:1019C00001960E942903CE0103960E94010CF801A2
:1019D00066817781CE0101960E941E03CE01039697
:1019E0000E94080C0E94F00BF80166817781CE01FD
:1019F00001960E9434034B815C816D817E81F801E8
:101A0000428353836483758302C0E12CF12CC701A8
:101A100026960FB6F894DEBF0FBECDBFDF91CF91F3
:101A20001F910F91FF90EF900895CF93DF93EC01FA
:101A30000E944F1B80E590E00E94D60BBE016E5FB6
:101A40007F4F44E050E08FE090E00E94A8160E9493
:101A5000F00BCE01DF91CF91089523E332E0FC013A
:101A600031832083FB014281538164817581FC01B4
:101A7000428353836483758308950F9300E020E0CD
:101A800040E060E087EE92E00E94591B8FEC92E00C
:101A90000F910C944F1B81E086270895862F08959F
:101AA000DC01ED91FC91048CF58DE02D099591E020
:101AB00089270895CF93DF931F92CDB7DEB769834F
:101AC000DC01ED91FC910280F381E02D41E050E0DA
:101AD000BE016F5F7F4F09950F90DF91CF91089501
:101AE00021E0FC018485843009F420E0822F0895F0
:101AF000FC019485FB018485981303C081E0943038
:101B000009F480E008950F931F93CF93DF93EC01C6
:101B10008A018C85843021F00E94B112892B39F41E
:101B200081E090E09B838A8380E090E001C0C8015F
:101B3000DF91CF911F910F910895FC01848584302E
:101B400011F00C94A81380E090E00895CF93DF93F8
:101B50001F92CDB7DEB741E050E0BE016F5F7F4F0F
:101B6000FC0184850E944813181619061CF489810B
:101B700090E002C08FEF9FEF0F90DF91CF9108951B
:101B8000FC0184850C9448130F931F93CF93DF932C
:101B90001F92CDB7DEB78C01DC01ED91FC91048082
:101BA000F581E02D0995892B51F0BE016F5F7F4FC4
:101BB000F80184850E94D313898190E002C08FEFE1
:101BC0009FEF0F90DF91CF911F910F910895FC012E
:101BD00084850C940214CF92DF92EF92FF920F93C0
:101BE0001F93CF93DF93CDB7DEB7AF970FB6F894BF
:101BF000DEBF0FBECDBF7C018B016A01CE01019615
:101C00000E944F1BCE0109960E949310CE018A9626
:101C10000E944F1B6FEC72E0CE0184960E942D0D46
:101C2000BE016C5D7F4FCE0101960E94DE08AE01C1
:101C3000465D5F4FB801CE0101960E94430B813093
:101C40009105C1F4D701ED91FC910484F585E02D57
:101C500083E392E09DA38CA30CA51DA52EA53FA513
:101C60000EA31FA328A739A7A601BE016C5D7F4F55
:101C7000C7010995AF960FB6F894DEBF0FBECDBF72
:101C8000DF91CF911F910F91FF90EF90DF90CF9058
:101C90000895FC011382128248EE53E060E070E088
:101CA00044835583668377838BED91E091838083B2
:101CB00084E084870895FC018485843011F00C94BD
:101CC0008D1180E00895DF92EF92FF920F931F93A2
:101CD000CF93DF93EC017B018A018C85843009F07E
:101CE00045C0D12C8D2D0E948D11811102C0DC8642
:101CF00007C08B7F8831D9F3D39484E0D812F2CF18
:101D00008C85843099F120912D0130912E012F5F27
:101D10003F4F11F420E030EC30932E0120932D0141
:101D200040912D0150912E0120E061E00E94DF11D1
:101D3000B7016E5F7F4FA8018C850E94331281111D
:101D400003C084E08C8712C0CE010E945B0E8731F5
:101D500051F061E070E080E090E00E943018CE0128
:101D60000E945B0EECCF81E090E002C080E090E04A
:101D7000DF91CF911F910F91FF90EF90DF90089529
:101D8000CF92DF92EF92FF92CF93DF93EC018C859D
:101D9000843081F10E948B120E9401186B017C013A
:101DA000CE010E945B0E882359F00E9401186C1925
:101DB0007D098E099F09683E73408105910598F061
:101DC000CE010E945B0E882319F08C850E94B5110C
:101DD000EC85F0E0EE0FFF1FE152FD4F1182108203
:101DE00084E08C8707C061E070E080E090E00E94B2
:101DF0003018D6CFDF91CF91FF90EF90DF90CF904A
:101E00000895CF93DF93EC018C858430D1F0CE011F
:101E10000E945B0E8431A9F0882399F0883189F003
:101E20008C3169F4E881F9810480F581E02DCE01DF
:101E3000099521E0892B09F420E0822F03C081E07D
:101E400001C080E0DF91CF9108950F9300E020E082
:101E500040E060E08DEE92E00E94591B0F910895E2
:101E60000F9300E020E040E060E083EF92E00E940A
:101E7000591B0F910895DC01ED91FC91008CF18DBF
:101E8000E02D099423E332E0FC0131832083FB0140
:101E90004189528963897489FC0142835383648335
:101EA00075830895FC01858996890895FC01818DCB
:101EB000928D0895CF93DF931F92CDB7DEB76983DC
:101EC000DC01ED91FC910280F381E02D41E050E0D6
:101ED000BE016F5F7F4F09950F90DF91CF910895FD
:101EE000CF93DF93EC01898D9A8D892B41F0E881A6
:101EF000F9810680F781E02DCE010995F4CFDF91BD
:101F0000CF910895CF93DF93EC018C85843061F0FD
:101F10000E94B511EC85F0E0EE0FFF1FE152FD4F7E
:101F20001182108284E08C87DF91CF910895FC01AB
:101F3000108E178A6E5F7F4F84850C944A14FC01C3
:101F400084850C949014CF93DF93EC019A018F89D0
:101F5000988DAB01BC018C850E9403142F89388DAC
:101F6000280F391F388F2F8BDF91CF9108950F9352
:101F70001F93CF93DF931F92CDB7DEB78C01FC0187
:101F8000818D928D892B59F041E050E0BE016F5F49
:101F90007F4F84850E944813181619061CF08FEF96
:101FA0009FEF08C0F801818D928D0197928F818FEC
:101FB000898190E00F90DF91CF911F910F9108954B
:101FC000CF93DF93EC01898D9A8D009719F48FEFF1
:101FD0009FEF10C04817590708F0AC018C850E948C
:101FE0004813181619069CF7298D3A8D281B390BB2
:101FF0003A8F298FDF91CF910895CF93DF931F926E
:10200000CDB7DEB7FC01218D328D232B49F0BE0107
:102010006F5F7F4F84850E94D313898190E002C057
:102020008FEF9FEF0F90DF91CF910895FF920F9365
:102030001F93CF93DF93EC018B018C858430E1F407
:10204000F12C8F2D0E948D11811102C0FC8606C0DB
:102050008831E1F3F39484E0F812F3CF8C85843077
:1020600059F01E870D871A8E198E20E0A80162E0B4
:102070000E94DF1181E001C080E0DF91CF911F91CC
:102080000F91FF9008950F931F93CF93DF93CDB7D8
:10209000DEB728970FB6F894DEBF0FBECDBF8C0118
:1020A000DC01ED91FC910284F385E02D0995F801A6
:1020B00084850E94A8131816190644F548E050E0DC
:1020C000BE016F5F7F4FD8011C968C910E94481310
:1020D00018161906ECF4BE016F5F7F4FC8010F960A
:1020E0000E94751B8D8190E0982F88272E81820F8A
:1020F000911DF801968B858B8F8190E0982F882712
:102100002885820F911D928F818F02C080E090E020
:1021100028960FB6F894DEBF0FBECDBFDF91CF91EA
:102120001F910F910895FC011382128248EE53E033
:1021300060E070E044835583668377838FEF91E09E
:102140009183808384E08487CF010F960C944F1B8A
:10215000CF92DF92EF92FF920F931F93CF93DF9373
:10216000CDB7DEB7AF970FB6F894DEBF0FBECDBFC9
:102170007C018B016A01CE0101960E944F1BCE01AA
:1021800009960E949310CE018A960E944F1B6FEC15
:1021900072E0CE0184960E942D0DBE016C5D7F4FD2
:1021A000CE0101960E94DE08AE01465D5F4FB80188
:1021B000CE0101960E94430B81309105C1F4D701F5
:1021C000ED91FC910088F189E02D83E392E09DA3DD
:1021D0008CA30CA51DA52EA53FA50EA31FA328A764
:1021E00039A7A601BE016C5D7F4FC7010995AF9667
:1021F0000FB6F894DEBF0FBECDBFDF91CF911F9118
:102200000F91FF90EF90DF90CF9008950F9300E033
:1022100020E040E060E089EF92E00E94591B0F91BE
:102220000895CF92DF92EF92FF920F9330E0C12C8E
:10223000F2E1DF2EFAE7EF2EF12C4C155D056E056D
:102240007F0540F4F694E794D794C7943F5F363007
:10225000A1F737E041E04327211102C050E701C058
:1022600050E5242F30E03595279523700C70202BF6
:10227000252BFC012083417041830F91FF90EF904B
:10228000DF90CF90089590E0982F882744E050E0A9
:10229000845F9B4F0C947715282F30E02C5F3F4FC5
:1022A000922F8827860F971F0C94A61562E070E086
:1022B0000C944C11FB01282F30E02C5F3F4F922FE4
:1022C0008827642F8E0F9F1F0C94ED14CF93DF93FC
:1022D000C82FD62F472F64E070E00E945A114D2F6F
:1022E00065E070E08C2FDF91CF910C945A11462F4E
:1022F00062E070E00C945A11CF93DF93C82FD62F71
:10230000472F60E170E00E945A114D2F61E170E0AB
:102310008C2FDF91CF910C945A110F931F93CF9371
:10232000DF9300D01F92CDB7DEB7182F00E021E079
:1023300040E059E06DE370E0CE0101960E9411117A
:1023400089819A810E94D60B63E070E0812F0E9400
:102350004C118B830E94F00B8B810F900F900F908C
:10236000DF91CF911F910F9108950F931F93CF93FA
:10237000DF9300D0CDB7DEB7182F00E021E040E0BA
:1023800059E06DE370E0CE0101960E941111898140
:102390009A810E94D60B40E150E0612F81E093E0EA
:1023A0000E9470176FEF812F0E9477110E94F00B2F
:1023B0000F900F90DF91CF911F910F910895CF92C1
:1023C000DF92EF92FF920F931F93CF93DF9300D092
:1023D000CDB7DEB7182FD62E7A01C22E8FEF860F1B
:1023E0008530A8F5812F0E94B51100E021E040E082
:1023F00059E06DE370E0CE0101960E9411118981D0
:102400009A810E94D60B4D2D4C2960E070E0812FFF
:102410000E945A11E114F10411F0B7010AC0609151
:10242000FF02709100036F5F7F4F70930003609312
:10243000FF02812F0E94661141E050E0612F81E090
:1024400093E00E9470170E94F00B81E001C080E0D1
:102450000F900F90DF91CF911F910F91FF90EF9010
:10246000DF90CF900895CF92DF92EF92FF920F937B
:102470001F93CF93DF9300D0CDB7DEB7182F7B012A
:102480006A01FB0180818F3F51F481818F3F99F474
:1024900082818F3F81F483818F3F69F430C0811145
:1024A0000AC0FB018181811106C08281811103C0B4
:1024B0008381882321F1C114D10409F100E021E0D6
:1024C00040E059E06DE370E0CE0101960E941111E9
:1024D00089819A810E94D60BB701812F0E944311F6
:1024E000B601812F0E947C1144E050E0612F81E011
:1024F00093E00E9470170E94F00B81E001C080E021
:102500000F900F90DF91CF911F910F91FF90EF905F
:10251000DF90CF9008950F931F93CF93DF9300D058
:10252000CDB7DEB7182F00E021E040E059E06DE3C1
:1025300070E0CE0101960E94111189819A810E945A
:10254000D60B48E050E0612F81E093E00E947017C5
:102550000E94F00B0F900F90DF91CF911F910F9180
:102560000895BF92CF92DF92EF92FF920F931F9345
:10257000CF93DF9300D01F92CDB7DEB7B82E6B019B
:102580007A01413088E0580718F0E12C98E0F92EE4
:1025900000E021E040E059E06DE370E0CE010196FB
:1025A0000E94111189819A810E94D60B6B2D81E0C6
:1025B00093E00E94DE158C0163E070E08B2D0E9499
:1025C0004C118B830E94F00B8B81873111F08C3181
:1025D00031F40E94B6170E151F05D0F202C0E12C8F
:1025E000F12C00E021E040E059E06DE370E0CE0125
:1025F00001960E94111189819A810E94D60B970140
:10260000A6016B2D81E093E00E949D1640E250E010
:102610006B2D81E093E00E9470178B2D0E94561164
:1026200084FD22C063E070E08B2D0E944C1181116B
:1026300008C00E94F00B8B2D0E94B51180E090E045
:102640001AC00E94F00B0E94B61700E021E040E0A3
:1026500059E06DE370E0CE0101960E94111189816D
:102660009A810E94D60BD9CF60E18B2D0E94771101
:102670000E94F00BC7010F900F900F90DF91CF9148
:102680001F910F91FF90EF90DF90CF90BF90089532
:10269000AF92BF92CF92DF92EF92FF920F931F9370
:1026A000CF93DF9300D0CDB7DEB7182F5B016A015F
:1026B00000E021E040E059E06DE370E0CE010196DA
:1026C0000E94111189819A810E94D60B612F81E0AD
:1026D00093E00E9412167C010097A1F463E070E081
:1026E000812F0E944C11843119F1882309F121E0D6
:1026F00030E08C3111F420E030E0EE24FF24E21AC7
:10270000F30A16C0C816D9060CF476011E141F046D
:102710007CF400E09701A501612F81E093E00E9425
:10272000201740E450E0612F81E093E00E94701791
:102730000E94F00BC7010F900F90DF91CF911F9176
:102740000F91FF90EF90DF90CF90BF90AF900895E2
:102750000F931F93CF93DF9300D000D0CDB7DEB798
:10276000182F00E021E040E059E06DE370E0CE0179
:1027700001960E94111189819A810E94D60B612FC6
:1027800081E093E00E9412168B839C830E94F00BE1
:102790008B819C810F900F900F900F90DF91CF91C4
:1027A0001F910F910895EF92FF920F931F93CF9374
:1027B000DF9300D0CDB7DEB7182F7B0100E021E01A
:1027C00040E059E06DE370E0CE0101960E941111E6
:1027D00089819A810E94D60B01E021E030E0A701B7
:1027E000612F81E093E00E9420170E94F00B81E0AE
:1027F00090E00F900F90DF91CF911F910F91FF907C
:10280000EF90089508959F92AF92BF92CF92DF927A
:10281000EF92FF920F931F93CF93DF9300D0CDB72A
:10282000DEB7982E6B015A01790100E021E040E00B
:1028300059E06DE370E0CE0101960E94111189818B
:102840009A810E94D60B692D81E093E00E94DE15EB
:102850008E159F0530F4692D81E093E00E94DE150E
:102860007C0187019501A601692D81E093E00E941A
:102870002E160E94F00BC7010F900F90DF91CF91A1
:102880001F910F91FF90EF90DF90CF90BF90AF908E
:102890009F900895CF92DF92EF92FF920F931F9334
:1028A000CF93DF9300D0CDB7DEB7182F7B016A013D
:1028B000FB018081811109C08181811106C0828163
:1028C000811103C083818823F1F0C114D104D9F0B0
:1028D00000E021E040E059E06DE370E0CE010196B8
:1028E0000E94111189819A810E94D60BB701812F14
:1028F0000E944311B601812F0E947C110E94F00BAF
:1029000081E090E002C080E090E00F900F90DF91B6
:10291000CF911F910F91FF90EF90DF90CF9008958E
:102920000F931F93CF93DF9300D0CDB7DEB7182F4F
:1029300000E021E040E059E06DE370E0CE01019657
:102940000E94111189819A810E94D60B40E250E0C9
:10295000612F81E093E00E947017812F0E94561131
:1029600084FD21C0812F0E94561183FF09C068E1B8
:10297000812F0E9477110E94F00B80E090E01BC035
:102980000E94F00B0E94B61700E021E040E059E001
:102990006DE370E0CE0101960E94111189819A8148
:1029A0000E94D60BDACF60E1812F0E9477110E943E
:1029B000F00B81E090E00F900F90DF91CF911F918D
:1029C0000F9108958EBD00000DB407FEFDCF8EB5AA
:1029D00008952A9808952A9A08951F93CF93DF9314
:1029E00000D0CDB7DEB7182F6A8399830E94E9140F
:1029F00080EF0E94E2149981892F0E94E214812FB6
:102A00000E94E2146A81862F0E94E2140E94EB1455
:102A100081E00F900F90DF91CF911F910895CF9398
:102A2000DF93EC016CE271E080E090E00E943018EE
:102A30000E948017229A80911303882399F09FB7F0
:102A4000F89480911303813059F48DB3809311036E
:102A50002DB380911203809582238DBB9FBF02C04E
:102A60009093110380E58CBD1DBC60E880E090E090
:102A70000E94ED1465E58BE190E00E94ED1465E5A0
:102A80008AE190E00E94ED1480911303882361F0A5
:102A90009FB7F8942091130380911103213019F40A
:102AA0008DBB9FBF01C08FBF80E090E49983888376
:102AB00080E090E69987888780E098E49B838A830A
:102AC00080E098E69B878A8780E090E59D838C83F1
:102AD00080E090E79D878C8780E098E59F838E83D8
:102AE00080E098E79F878E87DF91CF910895CF92FE
:102AF000DF92EF92FF920F931F93CF93DF93EC013E
:102B00007A018B016C01C40ED51ECC15DD05A1F038
:102B10000E94E91480EF0E94E2148D2F0E94E214BB
:102B20008C2F0E94E2142196F80181918F010E945E
:102B3000E2140E94EB14E9CFC701DF91CF911F91FE
:102B40000F91FF90EF90DF90CF9008951F93CF9358
:102B5000DF931F92CDB7DEB7182F99830E94E91437
:102B60008FE00E94E2149981892F0E94E214812F44
:102B70000E94E21480E00E94E21489830E94EB1418
:102B800089810F90DF91CF911F9108951F93CF936B
:102B9000DF93182F60E270E00E944C11C82FD0E044
:102BA00061E270E0812F0E944C11DC2FCC279E0146
:102BB000282BC901DF91CF911F910895FF920F93A8
:102BC0001F93CF93DF93F62EC0E0D0E08F2D0E94AD
:102BD000C6158C01009721F08F2D0E94C615EC01BF
:102BE000C017D10799F7CE01DF91CF911F910F91B7
:102BF000FF9008951F93CF93DF93182F66E270E044
:102C00000E944C11C82FD0E067E270E0812F0E9433
:102C10004C11DC2FCC279E01282BC901DF91CF91CD
:102C20001F910895FF920F931F93CF93DF93F62E7A
:102C3000C0E0D0E08F2D0E94FA158C01009721F0A2
:102C40008F2D0E94FA15EC01C017D10799F7CE011C
:102C5000DF91CF911F910F91FF9008956F927F9216
:102C60009F92AF92BF92CF92DF92EF92FF920F931B
:102C70001F93CF93DF931F92CDB7DEB7D82E962E3A
:102C80003A01590164E270E0892D99830E944C1148
:102C9000E82EF12C65E270E0892D0E944C11FE2C8B
:102CA000EE24E82AE60CF71C970137706D2C998109
:102CB000792E690C711C690C711CD301ED91FC918A
:102CC000E20FF31FC901800F911F81309840A0F0DF
:102CD000C12C48E0D42EC21AD30AA601B501CF01F7
:102CE0000E947715A8014C195D09B5016C0D7D1D79
:102CF000F3018081918103C0A801B501CF010E9439
:102D00007715E00EF11E4F2D64E270E0892D0E94D0
:102D10005A114E2D65E270E0892D0F90DF91CF9111
:102D20001F910F91FF90EF90DF90CF90BF90AF90E9
:102D30009F907F906F900C945A110F931F9389016D
:102D40009A0140E050E00E942E161F910F910895C5
:102D5000CF92DF92EF92FF920F931F93CF93DF9367
:102D6000EC017A018B016C01C40ED51ECC15DD057A
:102D7000A9F00E94E9148FE00E94E2148D2F0E94B6
:102D8000E2148C2F0E94E214219680E00E94E2144B
:102D9000F80181938F010E94EB14E8CFC701DF9106
:102DA000CF911F910F91FF90EF90DF90CF900895FA
:102DB000AF92BF92CF92DF92EF92FF920F931F9349
:102DC000CF93DF9300D0CDB7DEB75A834983590143
:102DD000E981FA81F7707C01E60EF11CE60EF11C28
:102DE000D70118968D919C9119978E0F9F1F98016E
:102DF0002E0F3F1F2130384098F0C12C68E0D62EAE
:102E0000CE1ADF0AA601B5010E94A816A8014C1926
:102E10005D09B5016C0D7D1DF7018085918502C0AE
:102E2000A801B5010F900F90DF91CF911F910F91E5
:102E3000FF90EF90DF90CF90BF90AF900C94A816CA
:102E40008F929F92AF92BF92CF92DF92EF92FF92BA
:102E50000F931F93CF93DF936C01962E5A01790144
:102E6000802E68E270E0892D0E944C11C82FD0E0BE
:102E700069E270E0892D0E944C11DC2FCC27C82B11
:102E800087019501AE01692DC6010E94D8168110F7
:102E90001AC0CE0DDF1D4D2F68E270E0892D0E9413
:102EA0005A114C2F69E270E0892DDF91CF911F916B
:102EB0000F91FF90EF90DF90CF90BF90AF909F90D9
:102EC0008F900C945A11DF91CF911F910F91FF9029
:102ED000EF90DF90CF90BF90AF909F908F9008952C
:102EE000CF93C62F61E070E08C2F0E945A1161E0F1
:102EF00070E08C2F0E944C118111F9CFCF91089571
:102F0000CF93CFB7F89480911403811127C0EAE9D9
:102F1000F0E08491E6E8F0E09491E82FF0E0EE0F25
:102F2000FF1FE255FF4FA591B4918C91892321F4A5
:102F300061E08AE00E94F51861E08AE00E94BC1816
:102F40008CB580618CBD8CB580648CBD61E08DE0FA
:102F50000E94BC1861E08BE00E94BC1880911403B1
:102F60008F5F80931403CFBFCF91089508951F9270
:102F70000F920FB60F9211242F933F938F939F932D
:102F8000AF93BF938091160390911703A0911803FC
:102F9000B09119033091150323E0230F2D3720F44E
:102FA0000196A11DB11D05C026E8230F0296A11DA3
:102FB000B11D209315038093160390931703A093DC
:102FC0001803B093190380911A0390911B03A091E9
:102FD0001C03B0911D030196A11DB11D80931A031E
:102FE00090931B03A0931C03B0931D03BF91AF915B
:102FF0009F918F913F912F910F900FBE0F901F9037
:1030000018952FB7F894609116037091170380916B
:103010001803909119032FBF08953FB7F89480913A
:103020001A0390911B03A0911C03B0911D0326B5B8
:10303000A89B05C02F3F19F00196A11DB11D3FBFF0
:103040006627782F892F9A2F620F711D811D911D80
:1030500042E0660F771F881F991F4A95D1F70895A0
:10306000CF92DF92EF92FF92CF93DF936B017C01BF
:103070000E940D18EB01C114D104E104F10489F0A0
:103080000E94B6170E940D186C1B7D0B683E7340A2
:1030900090F381E0C81AD108E108F108C851DC4F6B
:1030A000EACFDF91CF91FF90EF90DF90CF9008951E
:1030B000789484B5826084BD84B5816084BD85B513
:1030C000826085BD85B5816085BDEEE6F0E08081DA
:1030D00081608083E1E8F0E01082808182608083FB
:1030E000808181608083E0E8F0E08081816080837E
:1030F000E1EBF0E0808184608083E0EBF0E08081B0
:1031000081608083EAE7F0E0808184608083808151
:1031100082608083808181608083808180688083F9
:103120001092C1000895833081F028F4813099F025
:103130008230A1F008958730A9F08830B9F084304A
:10314000D1F4809180008F7D03C0809180008F77C3
:1031500080938000089584B58F7702C084B58F7DF9
:1031600084BD08958091B0008F7703C08091B00036
:103170008F7D8093B0000895CF93DF9390E0FC01A2
:10318000E458FF4F2491FC01E057FF4F84918823BE
:1031900049F190E0880F991FFC01E255FF4FA5917E
:1031A000B4918C559F4FFC01C591D4919FB761118B
:1031B00008C0F8948C91209582238C938881822377
:1031C0000AC0623051F4F8948C91322F30958323E9
:1031D0008C938881822B888304C0F8948C91822BF5
:1031E0008C939FBFDF91CF9108950F931F93CF933F
:1031F000DF931F92CDB7DEB7282F30E0F901E859F1
:10320000FF4F8491F901E458FF4F1491F901E05701
:10321000FF4F04910023C9F0882321F069830E94A5
:1032200093186981E02FF0E0EE0FFF1FEC55FF4F80
:10323000A591B4919FB7F8948C91611103C010953A
:10324000812301C0812B8C939FBF0F90DF91CF9181
:103250001F910F910895FC01818D228D90E0805C7B
:103260009F4F821B91098F7399270895FC01918DBF
:10327000828D981731F0828DE80FF11D858D90E0D9
:1032800008958FEF9FEF0895FC01918D828D98171F
:1032900061F0828DDF01A80FB11D5D968C91928D3A
:1032A0009F5F9F73928F90E008958FEF9FEF089537
:1032B00088EC9AE1892B49F082EA92E0892B29F087
:1032C0000E94C81A81110C94A2020895FC01848DF9
:1032D000DF01A80FB11DA35ABF4F2C91848D90E040
:1032E00001968F739927848FA689B7892C93A0891B
:1032F000B1898C9180648C93938D848D981306C0D2
:103300000288F389E02D80818F7D80830895CF939B
:10331000DF93EC01888D8823C9F0EA89FB898081DD
:1033200085FD05C0A889B9898C9186FD0FC00FB6AF
:1033300007FCF5CF808185FFF2CFA889B9898C91F0
:1033400085FFEDCFCE010E946619E7CFDF91CF91C7
:103350000895CF92DF92FF920F931F93CF93DF9345
:103360001F92CDB7DEB76C01DC015B969C915B9739
:103370005C968C915C97981307C05096ED91FC91E8
:103380005197808185FD32C0F601038D10E00F5FFB
:103390001F4F0F731127F02EF601848DF81211C004
:1033A0000FB607FCF9CFD6015096ED91FC915197DD
:1033B000808185FFF1CFC60169830E94661969810A
:1033C000EBCF838DE80FF11DE35AFF4F6083D601E9
:1033D0005B960C935B975296ED91FC91539780818D
:1033E0008062808381E058968C930DC0D6015696FA
:1033F000ED91FC91579760835096ED91FC91519718
:1034000080818064808381E090E00F90DF91CF9194
:103410001F910F91FF90DF90CF900895BF92CF92B0
:10342000DF92EF92FF92CF93DF93EC016A017B0171
:10343000B22EE889F98982E08083411581EE580730
:1034400061057105A1F060E079E08DE390E0A701EE
:1034500096010E94891E2150310941095109569552
:10346000479537952795211580E1380798F0E88929
:10347000F989108260E874E88EE190E0A701960176
:103480000E94891E215031094109510956954795DD
:1034900037952795EC85FD853083EE85FF85208364
:1034A000188EEC89FD89B082EA89FB898081806170
:1034B0008083EA89FB89808188608083EA89FB892F
:1034C000808180688083EA89FB8980818F7D808309
:1034D000DF91CF91FF90EF90DF90CF90BF90089554
:1034E0001F920F920FB60F9211242F938F939F93D9
:1034F000EF93FF93E0912E03F0912F038081E091F1
:103500003403F091350382FD12C09081809137031E
:103510008F5F8F7320913803821751F0E09137034A
:10352000F0E0E25EFC4F958F8093370301C080810D
:10353000FF91EF919F918F912F910F900FBE0F9060
:103540001F9018951F920F920FB60F9211242F9370
:103550003F934F935F936F937F938F939F93AF931B
:10356000BF93EF93FF938EE193E00E946619FF9162
:10357000EF91BF91AF919F918F917F916F915F91EB
:103580004F913F912F910F900FBE0F901F90189564
:103590008EE193E00E942B1921E0892B09F420E0B1
:1035A000822F0895109221031092200388EE93E059
:1035B000A0E0B0E08093220390932303A093240320
:1035C000B093250383E292E090931F0380931E0340
:1035D00085EC90E090932B0380932A0384EC90E099
:1035E00090932D0380932C0380EC90E090932F0315
:1035F00080932E0381EC90E090933103809330030D
:1036000082EC90E0909333038093320386EC90E059
:10361000909335038093340310923703109238034C
:103620001092390310923A030895AF92BF92CF924D
:10363000DF92EF92FF920F931F93CF93DF936C0172
:103640007B01C0E0D0E000E010E0F601EC0FFD1FD0
:103650004AE050E06281C7010E94F81C5C016EE202
:10366000C7010E94DF1B8A0D9B1D080F191F2196A1
:10367000C330D10551F74AE050E0F6016581C7013A
:103680000E94F81C800F911FDF91CF911F910F9125
:10369000FF90EF90DF90CF90BF90AF90089523E31D
:1036A00032E0FC013183208312821382148215825E
:1036B00008950F93FC0183E392E0918380836283FA
:1036C0004383248305830F91089523E332E0FC01B3
:1036D00031832083FB014081518162817381FC0130
:1036E00042835383648375830895FB014081518134
:1036F00062817381FC0142835383648375830895DF
:1037000083E392E09093BC038093BB031092BD03CC
:103710001092BE031092BF031092C0030895089543
:103720000E9458180E948F1B0E94D700C8E5D9E15B
:103730000E9430022097E1F30E945819F9CFCF92EE
:10374000DF92EF92FF920F931F93CF93DF936C0161
:103750007A01EB01E60EF71E00E010E0CE15DF0562
:1037600061F06991D601ED91FC910190F081E02D1D
:10377000C6010995080F191FF1CFC801DF91CF913C
:103780001F910F91FF90EF90DF90CF9008956115FA
:10379000710581F0DB010D900020E9F7AD0141508A
:1037A0005109461B570BDC01ED91FC910280F3811E
:1037B000E02D099480E090E008950C94C71BDC0193
:1037C000ED91FC910190F081E02D0994DB01ED91E8
:1037D000FC9111970190F081E02DBC01CD0109947D
:1037E0000F931F93CF93DF93EC016DE00E94DF1BDB
:1037F0008C016AE0CE010E94DF1B800F911FDF91D8
:10380000CF911F910F9108950F931F93CF93DF9343
:10381000EC010E94C71B8C01CE010E94F01B800F9F
:10382000911FDF91CF911F910F9108950F931F93D7
:10383000CF93DF93EC010E94E61B8C01CE010E9426
:10384000F01B800F911FDF91CF911F910F91089571
:103850008F929F92AF92BF92CF92DF92EF92FF92A0
:103860000F931F93CF93DF93CDB7DEB7A1970FB61A
:10387000F894DEBF0FBECDBF7C01C42EE52FCB0177
:10388000D22E19A221E02D1510F02AE0D22E8E01A1
:103890000F5D1F4F8D2C912CA12CB12C6C2D7E2FE8
:1038A000A50194010E94891E8C2DD29E801911249D
:1038B000015011098A3014F4805D01C0895CF8015F
:1038C0008083211531054105510521F0C22EE32FDA
:1038D000CA01E4CFB801C7010E94C71BA1960FB669
:1038E000F894DEBF0FBECDBFDF91CF911F910F9136
:1038F000FF90EF90DF90CF90BF90AF909F908F9010
:103900000895CF92DF92EF92FF920F931F93CF9380
:10391000DF93EC016A017B012115310579F4E8811F
:10392000F9810190F081E02D642FDF91CF911F91FB
:103930000F91FF90EF90DF90CF9009942A303105DE
:10394000E9F477FF1AC06DE20E94DF1B8C01442767
:103950005527BA014C195D096E097F092AE0CE018D
:103960000E94281C800F911FDF91CF911F910F9112
:10397000FF90EF90DF90CF9008952AE0B701A60165
:10398000CE01DF91CF911F910F91FF90EF90DF90CB
:10399000CF900C94281C9A01AB01662757FD6095C7
:1039A000762F0C94811C0F931F93CF93DF93EC0120
:1039B0009A01AB01662757FD6095762F0E94811C06
:1039C0008C01CE010E94F01B800F911FDF91CF91DF
:1039D0001F910F9108952115310541F4DC01ED91FE
:1039E000FC910190F081E02D642F09940C94281C27
:1039F0009A01462F50E060E070E00C94EB1CCF93EE
:103A0000DF9300D000D0CDB7DEB79B01AC016115CC
:103A100071058105910569F069833A834B835C8365
:103A20000E94401F29813A814B815C810E94AB1E1C
:103A300003C060E070E0CB010F900F900F900F90EB
:103A4000DF91CF910895CF92DF92EF92FF926B01B9
:103A50007C01621773078407950764F4CA01B901F2
:103A60006C197D098E099F090E94FF1C6C0D7D1D3C
:103A70008E1D9F1DFF90EF90DF90CF90089571D025
:103A800008F481E0089504D06894B111D9C0089574
:103A9000BCD088F09F5790F0B92F9927B751A0F06C
:103AA000D1F0660F771F881F991F1AF0BA95C9F7D2
:103AB00012C0B13081F0C3D0B1E00895C0C0672F0B
:103AC000782F8827B85F39F0B93FCCF38695779582
:103AD0006795B395D9F73EF490958095709561956B
:103AE0007F4F8F4F9F4F0895E89409C097FB3EF496
:103AF00090958095709561957F4F8F4F9F4F99233B
:103B0000A9F0F92F96E9BB279395F69587957795B8
:103B10006795B795F111F8CFFAF4BB0F11F460FF78
:103B20001BC06F5F7F4F8F4F9F4F16C0882311F0D0
:103B300096E911C0772321F09EE8872F762F05C0E4
:103B4000662371F096E8862F70E060E02AF09A957F
:103B5000660F771F881FDAF7880F9695879597F974
:103B60000895990F0008550FAA0BE0E8FEEF16160E
:103B70001706E807F907C0F012161306E407F50761
:103B800098F0621B730B840B950B39F40A2661F0D5
:103B9000232B242B252B21F408950A2609F4A14078
:103BA000A6958FEF811D811D089597F99F6780E885
:103BB00070E060E008959FEF80EC089500240A947F
:103BC0001616170618060906089500240A941216F8
:103BD0001306140605060895092E0394000C11F42B
:103BE000882352F0BB0F40F4BF2B11F460FF04C0D8
:103BF0006F5F7F4F8F4F9F4F089557FD9058440F31
:103C0000551F59F05F3F71F04795880F97FB991F3B
:103C100061F09F3F79F087950895121613061406F8
:103C2000551FF2CF4695F1DF08C016161706180685
:103C3000991FF1CF86957105610508940895E89460
:103C4000BB2766277727CB0197F908950BD0C4CF00
:103C5000B5DF28F0BADF18F0952309F0A6CFABCF77
:103C60001124EECFCADFA0F3959FD1F3950F50E05A
:103C7000551F629FF001729FBB27F00DB11D639F1E
:103C8000AA27F00DB11DAA1F649F6627B00DA11DC4
:103C9000661F829F2227B00DA11D621F739FB00D6A
:103CA000A11D621F839FA00D611D221F749F3327DA
:103CB000A00D611D231F849F600D211D822F762F73
:103CC0006A2F11249F5750408AF0E1F088234AF070
:103CD000EE0FFF1FBB1F661F771F881F91505040BC
:103CE000A9F79E3F510570F060CFAACF5F3FECF37C
:103CF000983EDCF3869577956795B795F795E795A8
:103D00009F5FC1F7FE2B880F911D9695879597F9B8
:103D10000895A1E21A2EAA1BBB1BFD010DC0AA1F0C
:103D2000BB1FEE1FFF1FA217B307E407F50720F024
:103D3000A21BB30BE40BF50B661F771F881F991F9F
:103D40001A9469F760957095809590959B01AC01E8
:103D5000BD01CF010895052E97FB1EF400940E942B
:103D6000C21E57FD07D00E94891E07FC03D04EF4E7
:103D70000C94C21E50954095309521953F4F4F4F62
:103D80005F4F089590958095709561957F4F8F4F07
:103D90009F4F0895692796276927782787277827CF
:103DA00008950E94E21EA59F900DB49F900DA49FC0
:103DB000800D911D11240895EE0FFF1F0590F491C1
:103DC000E02D0994A29FB001B39FC001A39F700D85
:103DD000811D1124911DB29F700D811D1124911D13
:103DE00008958F929F92AF92BF92CF92DF92EF92FF
:103DF000FF92CF93DF93EC01688179818A819B8167
:103E0000611571058105910521F464E279ED8BE579
:103E100097E02DE133EF41E050E00E94AB1E4901F5
:103E20005A019B01AC01A7EAB1E40E94D11E6B01CB
:103E30007C01ACEEB4EFA50194010E94EF20C60E08
:103E4000D71EE81EF91EF7FE06C081E0C81AD10889
:103E5000E10880E8F80AC882D982EA82FB82C701B9
:103E6000B6019F77DF91CF91FF90EF90DF90CF90D9
:103E7000BF90AF909F908F9008950E94F11E08957B
:103E800086E091E00E94F11E089560930601709310
:103E90000701809308019093090108956627772709
:103EA0000C94661FFB01DC0104C08D910190801908
:103EB00021F441505040C8F7881B990B0895FB012D
:103EC000DC0101900D920020E1F70895A0E0B0E040
:103ED000ECE6FFE10C94FA208B016115710521F0ED
:103EE000DB018C9311969C93EC015E01BFEFAB1A42
:103EF000BB0A7501C8808C2D90E00E94C920892BD7
:103F000011F0E501F2CFEDE2CE1208C07E01F2E041
:103F1000EF0EF11CC980DD24D39409C02BE2C2123C
:103F200005C07E0142E0E40EF11CC980D12CE701FE
:103F3000219743E050E060EC70E0CE010E94D12078
:103F4000892BC1F4239645E050E06BEB70E0CE0185
:103F50000E94D120892B09F425960115110519F02D
:103F6000D801CD93DC93D11006C160E070E080E809
:103F70009FE70AC143E050E068EB70E0CE010E9489
:103F8000D120892B59F40115110509F4F9C0B2E0CB
:103F9000EB0EF11CF801F182E082F2C0F70160E063
:103FA00070E0CB01C0E0D0E07F01A0EDAA2EAC0C08
:103FB00029E02A1530F14D2D4260B42E2D2D2870A8
:103FC000D2FE04C0211125C0219623C021112197C2
:103FD000A5E0B0E09B01AC010E94D11E660F771FE7
:103FE000881F991F6A0D711D811D911D6839A9E9EE
:103FF0007A078A07A9E19A0760F0BD2DB660BB2E4B
:1040000008C02EEFA2120AC0D3FC50C04D2D48604C
:10401000B42E3196D701CC90DB2CC6CF2C2D2F7D22
:10402000253409F043C0A081AD3241F4BD2DB0610B
:10403000DB2E7F0122E0E20EF11C0CC07F01AB32CF
:1040400031F04FEFE41AF40A21E030E006C0A2E0BC
:10405000EA0EF11CA18122E030E0A053AA3018F052
:10406000E21AF30A23C0F70120E030E02038BCE078
:104070003B075CF4A901440F551F440F551F240F43
:10408000351F220F331F2A0F311DAF014F5F5F4FC6
:104090007A01A081A053AA3010F4FA01E7CFD4FE30
:1040A00003C0319521953109C20FD31FD1FE09C03C
:1040B0000115110531F0E1E0EE1AF108D801ED9299
:1040C000FC920E94741D2D2D2370233019F04B019A
:1040D0005C0106C04B015C01B7FAB094B7F8B0942C
:1040E00020E030E0A901C501B4010E943F1D8823F2
:1040F00009F43EC0D7FF06C0D195C195D10907ED9F
:1041000010E002C00FEE10E06801B8E1CB1AD10850
:1041100090E2E92EF12CCE15DF0574F0F80125911F
:10412000359145915491C501B4010E94261E4B0161
:104130005C01CE19DF09EFCF04501109F594E79423
:104140000C151D0541F78A2D880F8B2D881F8F3F79
:1041500049F020E030E0A901C501B4010E943F1DF3
:10416000811106C082E290E09093C6038093C5035C
:10417000C501B40109C060E070E080E89FEF04C0B1
:1041800060E070E080EC9FE7CDB7DEB7ECE00C9428
:10419000162191111EC0803219F089508550D0F738
:1041A0000895FB01DC014150504088F08D9181342D
:1041B0001CF08B350CF4805E659161341CF06B351E
:1041C0000CF4605E861B611171F3990B0895881BD6
:1041D000FCCF992788270895B7FF0C94D11E0E9421
:1041E000D11E821B930B08952F923F924F925F92A4
:1041F0006F927F928F929F92AF92BF92CF92DF92F7
:10420000EF92FF920F931F93CF93DF93CDB7DEB75B
:10421000CA1BDB0B0FB6F894DEBF0FBECDBF0994EF
:104220002A88398848885F846E847D848C849B8446
:10423000AA84B984C884DF80EE80FD800C811B8154
:10424000AA81B981CE0FD11D0FB6F894DEBF0FBE83
:0A425000CDBFED010895F894FFCFF3
:10425A000000C703800001000000DEADBEEFFEEDE6
:10426A007261646D6F6E2E6F72670052616469616C
:10427A0074696F6E38380073616E64690000C044F7
:10428A00484350204572726F72202D2072657472F5
:10429A007920696E20313520736563005374617229
:1042AA00740052414D20417661696C3A20004D7983
:1042BA0020495020616464726573733A200047454F
:1042CA0054202F7261646D6F6E2E7068703F667530
:1042DA006E6374696F6E3D7375626D69742675736A
:1042EA0065723D002670617373776F72643D0026B4
:1042FA0076616C75653D0026756E69743D43504D57
:10430A000020485454502F312E3000484F53543A0D
:10431A0020005261646D6F6E206661696C6564008D
:10432A0057495A6E657400000000005A0D830D9DAE
:10433A000DA60DC40DE70D630EEB0DC00DC00E01E9
:10434A000F700D4B0D4E0D780D500D000000005AE8
:10435A000FA30F560FB70FFD0F700F1610820F978E
:10436A000FA8109F0F4310E00F3B0F420F520F0090
:10437A00000000A9199F1B2B194419361987190027
:06438A00000000151B00FD
:00000001FF
